:020000040800F2
:1000000000F00420DD020008497D00084D7D000855
:10001000517D0008557D0008597D00080000000052
:100020000000000000000000000000005D7D0008EE
:10003000617D000800000000657D0008997F0008D0
:100040001139000811390008113900081139000868
:100050001139000811390008113900081139000858
:100060001139000811390008113900081139000848
:100070001139000811390008113900081139000838
:100080001139000811390008113900081139000828
:100090001139000811390008113900081139000818
:1000A0001139000811390008113900081139000808
:1000B00011390008113900081139000811390008F8
:1000C00011390008113900081139000811390008E8
:1000D00011390008113900081139000811390008D8
:1000E00011390008113900081139000811390008C8
:1000F00011390008113900081139000811390008B8
:1001000011390008113900081139000811390008A7
:100110001139000811390008113900081139000897
:100120001139000811390008113900081139000887
:100130001139000811390008113900081139000877
:100140001139000811390008113900081139000867
:100150001139000811390008113900081139000857
:100160001139000811390008113900081139000847
:100170001139000811390008113900080000000089
:100180001139000811390008113900081139000827
:100190001139000811390008113900081139000817
:1001A0001139000811390008113900081139000807
:1001B00011390008113900081139000811390008F7
:1001C000113900081139000800B583B003F018FB9D
:1001D000304B314A1360314A1360314B314A03E0EE
:1001E00011681960043304322F498B42F8D32A4B2B
:1001F0001A682E4B9A4204D1284B1A682C4B9A420B
:1002000000D0FEE7234B2B4A13602B4A13602B4B85
:1002100002E000221A600433294A9342F9D3254BA5
:100220001B6813B9244B1B6803B1FEE703F0F4FA13
:1002300001A8694603F09AFA224B234DED1AAD103E
:10024000002404E01F4B53F8243098470134A542A2
:10025000F8DC1E4B1E4DED1AAD10002404E01B4BC4
:1002600053F8243098470134A542F8DC01980099EE
:1002700007F010F80546174B174CE41AA41004E0D9
:10028000013C144B53F824309847002CF8DC2846E6
:1002900003F048FABABADECA00000020AC0400201D
:1002A0000000002024150108B00400207856341204
:1002B00032547698B0040020B0930020B00400209F
:1002C000B49300200804000808040008080400088B
:1002D00008040008080400080804000808B5FFF72F
:1002E00073FF00BF00BEFEE71EF0040F0CBFEFF36C
:1002F0000880EFF309807146364A10472DE9F04136
:1003000082B007468846084C666BA56BA46A07480E
:1003100003F034FACDF800803846214632462B46A9
:1003200003F07EFA00BEFEE700ED00E0E892000870
:1003300000BEFEE71EF0040F0CBFEFF30880EFF3E2
:1003400009807146244A10472DE9F04182B00746E2
:100350008846084C666BA56BA46A074803F00EFA42
:10036000CDF800803846214632462B4603F058FA35
:1003700000BEFEE700ED00E0F89200081EF0040F5A
:100380000CBFEFF30880EFF309807146134A104762
:100390002DE9F04182B007468846084C666BA56B94
:1003A000A46A074803F0EAF9CDF8008038462146F0
:1003B00032462B4603F034FA00BEFEE700ED00E0C3
:1003C0000493000800BEFEE700BEFEE700BEFEE7A5
:1003D00070470000FD02000849030008910300086F
:1003E0002415010800000020B00400202415010895
:1003F0000000001000000010B0040020B4930020A2
:080400000000001000000010D4
:1004080010B5044601F042FC064BA3FB002080090E
:1004180000F082F84FF0FF302146002200F03EF84D
:10042800002010BDD34D621008B5032000F024F859
:100438000020FFF7E5FF01F039F8002008BD00BFF4
:10044800024B1A6801321A60704700BFB4040020DA
:10045800014B1868704700BFB404002010B582B083
:100468000190FFF7F5FF0446FFF7F2FF001B019B21
:100478009842F9D302B010BD00F00700064AD368CD
:1004880023F4E0631B041B0C43EA002343F0BF631F
:1004980043F40033D360704700ED00E030B4164BEE
:1004A800DB68C3F30223C3F10705042D28BF042525
:1004B8001C1D062C01D9033B00E00023012404FA8B
:1004C80005F5013D2940994004FA03F3013B1A4020
:1004D8000A43002806DA00F00F001201D2B2074BD7
:1004E8001A5407E01201D2B200F1604000F56140F1
:1004F80080F8002330BC704700ED00E014ED00E008
:10050800420900F01F00012303FA00F0014B43F8F1
:100518002200704700E100E00138B0F1807F0AD284
:10052800064B5860F021064A82F823100020986094
:1005380007221A6070470120704700BF10E000E0F2
:1005480000ED00E0704700BF08B5FFF7FBFF08BDEE
:1005580010B40368DAB2103A0C49A1FB024212093E
:100568000B49895C4165032A06D923F47F7323F07C
:1005780003030433036504E023F47F7323F00303C8
:100588000365006D5DF8044B704700BFABAAAAAACB
:10059800B491000810B50446002832D0022380F830
:1005A800353002681168184B0B404068A168084351
:1005B800E16808432169084361690843A169084360
:1005C800E1690843216A01430B43616A042903D1A5
:1005D800E06A216B01430B4313602368596921F0DA
:1005E8000701626A1143042A01D1A26A11435961C1
:1005F8002046FFF7ADFF0020E064012384F8353082
:1006080010BD012010BD00BF3F8010F038B5044672
:1006180028B390F83530DBB2022B22D003681A6871
:1006280022F001021A60036800251D6003685D60FE
:1006380003689D600368DD6003681D61036821220B
:100648005A61FFF785FF636D3F2202FA03F3836067
:10065800E56484F8355084F83450284638BD0120C4
:1006680038BD012038BD00BF30B40468029D45EA9A
:10067800034363640368DA634368B3F5403F35D1E5
:1006880001F07F4501F47F0401F47F42C9B2836819
:100698001BB922431543294325E0012B02D12243EC
:1006A800114320E0022B07D1E40C920AE40244EA49
:1006B800421242EAD10116E0032B0AD1ED0FE40CF5
:1006C800D20AA40244EA421242EAC53545EAD101F7
:1006D80009E02D0F240D120B240244EA021242EA0B
:1006E800053545EA11110368996301E00368D9608B
:1006F80030BC7047704700BF10B5044648B390F847
:10070800393013F0FF0F04D1002380F83830FFF799
:10071800F1FF022384F839302368196821F4403145
:1007280062680A431A602368596B21F00701A268BE
:100738000A435A632268136C23F47F5323F03F0360
:10074800E1680B4313640020E063012384F8393027
:1007580010BD012010BD00BF30B583B0044690F82D
:100768003800012816D0012084F83800022084F8C7
:1007780039002068056825F0010505600698009095
:100788002046FFF771FF23681A6842F001021A60D9
:10079800002000E0022003B030BD00BF70B5044661
:1007A8000D4603681B6813F0010F30D0FFF750FEA9
:1007B800064627E05A68596801F0010112F0200F37
:1007C80000D159B120229A6023680120986004233F
:1007D80084F83930002384F8383070BDB5F1FF3F14
:1007E80010D025B1FFF734FE801BA8420AD9002398
:1007F80084F83830E36B43F02003E363032084F884
:10080800390070BD23685A6812F0020FD2D02368ED
:10081800DB6913F0200F24D0FFF71AFE06461BE011
:100828005A6812F0080F06D008229A60042384F848
:100838003930012070BDB5F1FF3F0DD025B1FFF76C
:1008480007FE801BA84207D9E36B43F02003E3634C
:10085800032084F8390070BD23685A6812F0100F1D
:10086800DED0236802229A60236810229A6001234E
:1008780084F83930002084F8380070BD70B40A015B
:100888001832831890F83840012C67D0012480F87A
:100898003840022480F8394061BB0468656A3149F0
:1008A80029405D68A5F10906012E08D89E6845EA29
:1008B8000645DE6806F07F462E43314306E09E6813
:1008C80045EA0645DE6845EA066631436162046822
:1008D800A16921F47F5121F03F0182581143A161A0
:1008E8005A68093A012A31D8DA6822F07F42036847
:1008F8009A622BE00468E5691A4929405D68A5F108
:100908000906012E08D89E6845EA0645DE6806F005
:100918007F462E43314306E09E6845EA0645DE6879
:1009280045EA06663143E1610468216921F47F5193
:1009380021F03F018258114321615A68093A012A7E
:1009480004D8DA6822F07F4203681A62012380F82B
:100958003930002380F83830184600E0022070BC97
:10096800704700BFF0FFFC002DE9F00183B00023C1
:10097800E2E01E4601229A400C681440944240F07E
:10098800DA804D68022D01D0122D14D1DD0808350A
:1009980050F8257003F0070C4FEA8C0C4FF00F0845
:1009A80008FA0CF827EA08080F6907FA0CF747EA6B
:1009B800080740F8257007685D004FF0030C0CFA33
:1009C80005FC6FEA0C0C0CEA07084F6807F00307F0
:1009D800AF4047EA080707604F6807F1FF38B8F1EA
:1009E800010F03D9112F01D0122F11D187680CEAFA
:1009F8000708CF68AF4047EA08078760476827EAD3
:100A080002024F68C7F3001707FA06F6324342603E
:100A1800C2680CEA020C8A68AA4042EA0C02C26068
:100A28004A6812F0805F00F08680474A556C45F4AA
:100A380080455564526C02F480420192019A9A08EA
:100A4800961C424D55F8267003F00305AD000F269D
:100A5800AE4027EA06063E4FB84237D007F5806712
:100A6800B84231D007F58067B8422BD007F58067C8
:100A7800B84225D007F58067B8421FD007F58067D0
:100A8800B84219D007F58067B84213D007F58067D8
:100A9800B8420DD007F58067B84207D007F58067E0
:100AA800B84201D1092712E00A2710E008270EE012
:100AB80007270CE006270AE0052708E0042706E0D8
:100AC800032704E0022702E0012700E0002707FAD5
:100AD80005F5354302321D4E46F822501D4A156869
:100AE800E24302EA05064F6817F4803F01D044EA62
:100AF8000506184D2E606D6802EA05064F6817F462
:100B0800003F01D044EA0506124D6E60AD6802EA66
:100B180005064F6817F4801F01D044EA05060D4DFD
:100B2800AE60ED682A404E6816F4001F01D044EA12
:100B38000502084CE26001330F2B7FF61AAF03B0B1
:100B4800BDE8F001704700BF00380240003801409E
:100B580000000240003C014003690B4201D0012023
:100B680070470020704700BF0AB1816170470904CF
:100B78008161704710B40068446824F07F7424F4DD
:100B8800593424F47F7424F00304C1F3090141EAC1
:100B980002421343019919430C4344605DF8044B26
:100BA800704700BF70B504460D46FFF751FC064676
:100BB80023689A6912F0100F46D094F83520D2B203
:100BC800122A09D094F83520D2B2522A04D094F8C7
:100BD8003520D2B2622A19D15A6812F0007F15D195
:100BE8005A6842F480425A6010E0B5F1FF3F0DD0D8
:100BF80025B1FFF72DFC801BA84207D9012384F8F3
:100C08003530002384F83430032070BD23689A6996
:100C180012F0200FE9D01022DA6123682022DA616D
:100C280023685A6822F0FF7222F48B3222F4FF7292
:100C380022F001025A600423A363012084F83500DE
:100C4800002384F8343070BD002070BD70B50446B0
:100C58000D46FFF7FDFB064619E020462946FFF73B
:100C6800A1FFD8B9B5F1FF3F11D025B1FFF7F0FBCF
:100C7800801BA8420BD9A36B43F02003A363012375
:100C880084F83530002384F83430032070BD23689D
:100C98009B6913F0020FE0D0002070BD012070BDE9
:100CA8002DE9F04105460E4690461C46FFF7D0FB5D
:100CB8000746B8F1000F12D02EE0B4F1FF3F0ED076
:100CC80024B1FFF7C5FBC01BA04208D9012385F852
:100CD8003530002385F834300320BDE8F0812B68D7
:100CE8009B6926EA0303C3F31003002BE5D1002018
:100CF800BDE8F081B4F1FF3F0ED024B1FFF7A8FBA7
:100D0800C01BA04208D9012385F83530002385F897
:100D180034300320BDE8F0812B689B6926EA030381
:100D2800C3F31003002BE5D00020BDE8F08100BF1D
:100D380070B505460C46FFF78BFB064616E02846BD
:100D48002146FFF72FFFC0B924B1FFF781FB801BB5
:100D5800A0420BD9AB6B43F02003AB63012385F8AA
:100D68003530002385F83430032070BD2B689B692B
:100D780013F0200FE3D0002070BD012070BD00BF2C
:100D8800704700BF10B5044600284FD090F83530A2
:100D980013F0FF0F04D1002380F83430FFF7F0FF81
:100DA800022384F8353023681A6822F001021A6099
:100DB8002368626822F070621A6123689A6822F4D4
:100DC80000429A60A3685BB1E268012A04D12268F4
:100DD80043F40043936003E0226843F404439360C0
:100DE800E368022B03D123684FF400625A6022683B
:100DF800536843F0007343F4004353602368216948
:100E080062691143A26941EA0222DA602368E16952
:100E1800226A0A431A6023681A6842F001021A60BB
:100E28000020A063012384F8353010BD012010BDD7
:100E38002DE9F04383B004460F4616461D4690F848
:100E48003530DBB2012B40F08780002A00F0868025
:100E5800002D00F0858003689B6913F4004F40F073
:100E6800818090F83430012B7ED0012380F8343013
:100E7800122380F8353000238363FF2D0AD94FF4FD
:100E880000530093FF224FF08073FFF773FE4FF07B
:100E9800FF080AE04FF400530093EAB24FF00073E2
:100EA800FFF768FEA84600E04E4620460A99FFF77D
:100EB800CDFE20B1A36B042B58D101235BE023683E
:100EC80006F1010932789A62013DADB2B8F1010824
:100ED80020D1FDB12046802100220A9BFFF7E0FEC9
:100EE800002845D1FF2D0BD9002300932046394611
:100EF800FF224FF08073FFF73DFE4FF0FF0809E037
:100F08000023009320463946EAB24FF00073FFF7FA
:100F180031FEA846002DC7D120460A99FFF708FFE1
:100F2800034620B1A36B042B24D1012323E02268BC
:100F38002021D1612268516821F0FF7121F48B31A1
:100F480021F4FF7121F001015160012284F835205C
:100F5800002284F834200EE002230CE001230AE08A
:100F6800012308E0022306E0022304E0032302E051
:100F7800032300E00323184603B0BDE8F08300BF55
:100F88002DE9F04383B004460F4616461D4690F8F7
:100F98003530DBB2012B40F08480002A00F08380DA
:100FA800002D00F0828003689B6913F4004F7ED106
:100FB80090F83430012B7CD0012380F83430222380
:100FC80080F8353000238363FF2D0AD94FF410537E
:100FD8000093FF224FF08073FFF7CCFD4FF0FF081E
:100FE8000AE04FF410530093EAB24FF00073FFF792
:100FF800C1FDA84600E04E462046042100220A9B77
:10100800FFF74EFE002856D106F1010923685B6AF6
:101018003370013DADB2B8F1010820D1FDB12046D1
:10102800802100220A9BFFF73BFE002845D1FF2DB7
:101038000BD90023009320463946FF224FF08073D6
:10104800FFF798FD4FF0FF0809E0002300932046C2
:101058003946EAB24FF00073FFF78CFDA846002D21
:10106800C9D120461921FFF763FE034620B1A36BBF
:10107800042B24D1012323E022682021D161226896
:10108800516821F0FF7121F48B3121F4FF7121F0B7
:1010980001015160012284F83520002284F83420AF
:1010A8000EE002230CE001230AE0012308E00223FA
:1010B80006E0022304E0032302E0032300E0032305
:1010C800184603B0BDE8F083806B704710B490F801
:1010D8003530DBB2022B36D090F83530DBB2122B2C
:1010E80033D090F83530DBB2222B30D090F8353041
:1010F800DBB2322B2DD090F83530DBB2422B2AD020
:1011080090F83430012B28D0012380F834300222A3
:1011180080F835200268146824F00104146002681D
:10112800146824F480541460026814682143116020
:10113800026811681943116080F83530002380F87F
:10114800343018460AE0022008E0022006E00220B7
:1011580004E0022002E0022000E002205DF8044BD7
:10116800704700BFF0B44C680368DD68C5F30B45F1
:101178002C44D2011344D3F8885005F47045C3F8C1
:1011880088500368D6180D68DB68C3F30B431D4409
:10119800013545EA0444C6F88840CC680368DE682F
:1011A800C6F30A0626441344D3F88C4004F470446A
:1011B800C3F88C400368D5188C68DB68C3F30A034E
:1011C8001C44631C43EA0644C5F88C400368134476
:1011D800D3F8944024F00704C3F8944003681344F8
:1011E80003F184040B69236191F831C091F83270DE
:1011F8008E6903681344D3F89C400024C3F89C40CC
:101208000368134491F8305045EA0C2545EA074530
:1012180045EA0665C3F89C5003681344D3F8985010
:1012280025F0FF05C3F898500368134403F18405BB
:101238004B696B6105681544D5F8A03023F4E06369
:1012480023F00703C5F8A0300368134403F18406AC
:10125800CD690B6A2B43F36103681344D3F8AC5090
:10126800C3F8AC400368134403F184044B6AA362D7
:101278000B695BB1012B0BD0042B0BD0022B0BD0CD
:10128800032B0BD0072B0BD102240AE0042408E01F
:10129800032406E0022404E0022402E0022400E021
:1012A800012403681344D3F8B05005F0E025C3F8CF
:1012B800B0500368134403F184068B6A04FB03F7F8
:1012C8004D680B68EB1A04FB03F4033444EA074344
:1012D800F36204681444D4F8B43023F4FF6323F0B1
:1012E8000703C4F8B43003681344C96AC3F8B410D8
:1012F80003681A44D2F8843043F00103C2F88430FA
:10130800F0BC7047704700BF38B50446002876D057
:1013180090F8A13013F0FF0F04D1002380F8A0301B
:10132800FFF7F0FF022384F8A13023689A6922F0BE
:1013380070429A6123689D696168A0680843E16802
:10134800014322690A432A439A61226891682D4B16
:1013580019409160606922689568A16941EA004175
:10136800294391602268D1681940D160E0692268F8
:10137800D568216A41EA00412943D1602268116990
:1013880019401161606A22681569A16A41EA004141
:1013980029431161226851690B405361E16A23684E
:1013A8005869226B42EA014202435A6194F83500B7
:1013B80094F8362012042368D96A01F07F41D96273
:1013C8002368D96A42EA002294F8340002430A43A7
:1013D800DA6223685A6B42F004025A6323685A6B34
:1013E80042F002025A6323689A6942F001029A6144
:1013F8000020C4F8A400012384F8A13038BD0120DE
:1014080038BD00BF00F800F02DE9F04106468C46D3
:10141800174690F8A030012B22D04FF0010880F831
:10142800A080022380F8A130342404FB020438345D
:101438000D460FCD0FC40FCD0FC40FCD0FC42B68B1
:101448002360304661463A46FFF78CFE3368C3F89E
:10145800248086F8A180002086F8A000BDE8F081ED
:101468000220BDE8F08100BF38B5044690F8A030EE
:10147800012B15D0012580F8A050022380F8A13057
:10148800342303FB0203D96438331946FFF76AFE95
:1014980023685D6284F8A150002084F8A00038BD5C
:1014A800022038BD90F8A100704700BF704700BF08
:1014B80010B582B01C4B1A6C42F080521A641B6C37
:1014C80003F080530193019B184B1A6842F4803251
:1014D8001A60FEF7BDFF044605E0FEF7B9FF001BE2
:1014E800B0F57A7F1AD8114B5B6813F4803FF4D0BB
:1014F8000E4B1A6842F400321A60FEF7A9FF044640
:1015080005E0FEF7A5FF001BB0F57A7F08D8074B6A
:101518005B6813F4003FF4D0002002E0032000E0F1
:10152800032002B010BD00BF003802400070004028
:1015380030B583B00446036813F0010F00F08680CD
:10154800A54B9B6803F00C03042B0AD0A24B9B68A5
:1015580003F00C03082B0DD19F4B5B6813F4800F2D
:1015680008D09D4B1B6813F4003F6FD06368002BB5
:101578006CD1FCE1984B1A6822F480321A601A6820
:1015880022F480221A601A6822F480321A60FEF768
:101598005FFF054607E0FEF75BFF401B41F288331B
:1015A800984200F2E6818C4B1B6813F4003FF2D19D
:1015B800894B1A6822F480321A606368B3F5803F59
:1015C80009D1854B1A6822F480221A601A6842F4FD
:1015D80080321A6015E0B3F5A02F09D17E4B1A6846
:1015E80042F480221A601A6842F480321A6008E0D5
:1015F800794B1A6822F480221A601A6822F4803221
:101608001A6063688BB1FEF723FF054607E0FEF713
:101618001FFF401B41F28833984200F2AC816E4BA9
:101628001B6813F4003FF2D010E0FEF711FF0546E7
:1016380007E0FEF70DFF401B41F28833984200F2A5
:101648009C81654B1B6813F4003FF2D1236813F0AB
:10165800020F5ED0604B9B6813F00C0F0AD05E4BF4
:101668009B6803F00C03082B1BD15B4B5B6813F4DE
:10167800800F16D1584B1B6813F0020F03D0E36894
:10168800012B40F07C81544B196821F0F801226944
:10169800F82090FAA0F0B0FA80F082400A431A606D
:1016A80037E0E3680BB34C4B1A6842F001021A604A
:1016B800FEF7CEFE054605E0FEF7CAFE401B64288D
:1016C80000F25F81444B1B6813F0020FF4D0424BC9
:1016D800196821F0F8012269F82090FAA0F0B0FA10
:1016E80080F082400A431A6013E03B4B1A6822F0EC
:1016F80001021A60FEF7ACFE054605E0FEF7A8FEFB
:10170800401B642800F23F81334B1B6813F0020F23
:10171800F4D1236813F0080F2AD06369A3B12E4BC4
:101728005A6F42F001025A67FEF792FE054605E03D
:10173800FEF78EFE401B642800F22781264B5B6F64
:1017480013F0020FF4D013E0234B5A6F22F001027A
:101758005A67FEF77DFE054605E0FEF779FE401B59
:10176800642800F214811C4B5B6F13F0020FF4D154
:10177800236813F0040F00F08C80174B1A6C42F0AA
:1017880080521A641B6C03F080530193019B134B26
:101798001A6842F480721A60FEF75AFE054605E0A0
:1017A800FEF756FE401B642800F2F3800B4B1B68C3
:1017B80013F4807FF4D0084B1A6F22F001021A67E5
:1017C8001A6F22F004021A671A6F22F001021A67D0
:1017D800FEF73EFE05460BE0003802400070004070
:1017E800FEF736FE401B41F28833984200F2D38060
:1017F800714B1B6F13F0020FF2D16F4B1A6F22F06F
:1018080001021A67A368012B09D16B4B1A6F22F0EA
:1018180004021A671A6F42F001021A6714E0052BD6
:1018280009D1654B1A6F42F004021A671A6F42F029
:1018380001021A6708E0604B1A6F22F004021A6767
:101848001A6F22F001021A67A3688BB1FEF700FE37
:10185800054607E0FEF7FCFD401B41F2883398423D
:1018680000F29B80544B1B6F13F0020FF2D010E074
:10187800FEF7EEFD054607E0FEF7EAFD401B41F2E4
:101888008833984200F28B804B4B1B6F13F0020F8A
:10189800F2D1A369002B00F08480474A926802F0D5
:1018A8000C02082A7FD0022B4CD1434B1A6822F035
:1018B80080721A60FEF7CCFD054604E0FEF7C8FD0D
:1018C800401B642871D83C4B1B6813F0007FF5D18E
:1018D800236A626A47F6C07191FAA1F1B1FA81F1FF
:1018E8008A4043EA0201A36A5B085A1E4FF4403358
:1018F80093FAA3F3B3FA83F39A400A43E3691343D1
:10190800E16A4FF0706292FAA2F2B2FA82F201FA38
:1019180002F21A4342F00052274B5A601A6842F00A
:1019280080721A60FEF794FD044604E0FEF790FD0D
:10193800001B64283BD8204B1B6813F0007FF5D0B0
:10194800002037E01C4B1A6822F080721A60FEF7FC
:101958007FFD044604E0FEF77BFD001B642828D8C1
:10196800154B1B6813F0007FF5D1002022E0012001
:1019780020E003201EE003201CE003201AE00120E1
:1019880018E0032016E0032014E0032012E00320EF
:1019980010E003200EE003200CE003200AE00320FF
:1019A80008E0002006E0012004E0032002E0032014
:1019B80000E0032003B030BD0038024070B5044693
:1019C8000D468A4B1B6803F00F038B426ED2874B80
:1019D8001A6822F00F020A431A601B6803F00F030B
:1019E8008B4240F0E780036813F0020F06D0804B6B
:1019F800996821F0F00182680A439A60236813F01D
:101A0800010F00F0BB806368012B05D1784A12688A
:101A180012F4003F0ED1CFE0022B05D1744A1268B0
:101A280012F0007F06D1C9E0714A126812F0020F65
:101A380000F0C6806E4A916821F003010B43936061
:101A4800FEF706FD05466368012B0FD107E0FEF798
:101A5800FFFC401B41F28833984200F2B380644B8C
:101A68009B6803F00C03042BF1D187E0022B17D1FC
:101A780007E0FEF7EDFC401B41F28833984200F284
:101A8800A3805B4B9B6803F00C03082BF1D175E036
:101A9800FEF7DEFC401B41F28833984200F2968044
:101AA800534B9B6813F00C0FF2D167E0036813F0F7
:101AB800020F06D04E4B996821F0F00182680A4364
:101AC8009A60236813F0010F4DD06368012B05D18C
:101AD800474A126812F4003F0DD179E0022B05D174
:101AE800434A126812F0007F05D173E0404A126839
:101AF80012F0020F70D03E4A916821F003010B43A7
:101B08009360FEF7A5FC06466368012B0ED106E03C
:101B1800FEF79EFC801B41F2883398425ED8344B16
:101B28009B6803F00C03042BF2D11CE0022B15D1A7
:101B380006E0FEF78DFC801B41F2883398424FD8AF
:101B48002B4B9B6803F00C03082BF2D10BE0FEF73C
:101B58007FFC801B41F28833984243D8244B9B6812
:101B680013F00C0FF3D1214B1A6822F00F022A430D
:101B78001A601B6803F00F03AB4235D1236813F0DA
:101B8800040F06D01A4B996821F4E051E2680A4321
:101B98009A60236813F0080F07D0154B9A6822F44F
:101BA8006042216942EAC1029A600020FEF728FCDF
:101BB800002070BD012070BD012070BD012070BDE6
:101BC800012070BD032070BD032070BD032070BDCF
:101BD800012070BD012070BD012070BD032070BDC3
:101BE800032070BD032070BD012070BD003C024081
:101BF80000380240224B9B6803F00C03042B3DD0B5
:101C0800082B01D01F4870471D4B586800F03F0053
:101C18005B6813F4800F10D01B4BB3FBF0F0184B2C
:101C28005A6847F6C0731A4093FAA3F3B3FA83F3DA
:101C380022FA03F303FB00F00FE0124BB3FBF0F0C2
:101C48000F4B5A6847F6C0731A4093FAA3F3B3FAD6
:101C580083F322FA03F303FB00F0094B5A6802F4FA
:101C680040324FF4403393FAA3F3B3FA83F322FAE2
:101C780003F301335B00B0FBF3F070470248704791
:101C8800003802400024F40040787D0108B5FFF7D1
:101C9800B1FF084B9A6802F0F002F02393FAA3F31D
:101CA800B3FA83F322FA03F3034AD35CD840034B15
:101CB800186008BD00380240BC9100080C000020E4
:101CC800F0B583B00446036813F0010F0CD04D4BF8
:101CD8009A6822F400029A609968426B0A439A60F3
:101CE800436B1BB1002702E0002700E001272368AF
:101CF80013F4002F10D0434BD3F88C1021F440116B
:101D0800E26B0A43C3F88C20E36BB3F5801F00D164
:101D180001271BB1002502E0002500E0012523680A
:101D280013F4801F0FD0374BD3F88C1021F44001E7
:101D3800226C0A43C3F88C20236CB3F5800F00D1C2
:101D4800012703B90125236813F0807F00D00127FC
:101D580013F0200F66D02B4B1A6C42F080521A6495
:101D68001B6C03F080530193019B274B1A6842F4C4
:101D780080721A60FEF76CFB064605E0FEF768FB0A
:101D8800801B642800F2BE821F4B1B6813F4807FFF
:101D9800F4D01C4B1A6F236B534013F4407F41D08F
:101DA800184B1A6F22F44071186F40F4803018678E
:101DB800186F20F480301867196712F0020F10D0DE
:101DC800FEF746FB064607E0FEF742FB801B41F2A2
:101DD8008833984200F298820A4B1B6F13F0020F67
:101DE800F2D0236B03F44072B2F5407F0ED1054A5E
:101DF800916821F4F81123F0704323F440730B43E6
:101E0800936008E00038024000700040824B9A68F6
:101E180022F4F8129A60804B196F226BC2F30B02FE
:101E28000A431A67236813F0100F0CD07A4BD3F8C3
:101E38008C2022F08072C3F88C20D3F88C10A26B0F
:101E48000A43C3F88C20236813F4804F08D0724BE0
:101E5800D3F8901021F44031626E0A43C3F8902001
:101E6800236813F4004F08D06B4BD3F8901021F47B
:101E78004021A26E0A43C3F89020236813F4803FE0
:101E880008D0654BD3F8901021F44011E26E0A4354
:101E9800C3F89020236813F4003F08D05E4BD3F8B2
:101EA800901021F44001226F0A43C3F89020236860
:101EB80013F0400F08D0584BD3F8901021F00301CD
:101EC800626C0A43C3F89020236813F0800F08D08F
:101ED800514BD3F8901021F00C01A26C0A43C3F8BF
:101EE8009020236813F4807F08D04B4BD3F89010D0
:101EF80021F03001E26C0A43C3F89020236813F400
:101F0800007F08D0444BD3F8901021F0C001226D17
:101F18000A43C3F89020236813F4806F08D03E4B1F
:101F2800D3F8901021F44071626D0A43C3F89020F1
:101F3800236813F4006F08D0374BD3F8901021F4BE
:101F48004061A26D0A43C3F89020236813F4805FB0
:101F580008D0314BD3F8901021F44051E26D0A4378
:101F6800C3F89020236813F4005F08D02A4BD3F8F5
:101F7800901021F44041226E0A43C3F89020236850
:101F880013F4800F08D0244BD3F8901021F080610F
:101F9800A26F0A43C3F89020236813F4001F0DD0E2
:101FA8001D4BD3F8901021F00061E26F0A43C3F88B
:101FB8009020E36FB3F1006F00D10125236813F07F
:101FC800080F00D0012513F4802F08D0124BD3F846
:101FD800901021F04071626F0A43C3F89020236883
:101FE80013F4000F09D00C4BD3F8901021F0805156
:101FF800D4F880200A43C3F8902027B92368B3F1A6
:10200800007F40F0C480044B1A6822F080621A6096
:10201800FEF71EFA064607E000380240FEF718FAF7
:10202800801B642800F27281BE4B1B6813F0006F9E
:10203800F4D1236813F0010F23D0636B0BBBB94BAA
:10204800D3F8840000F440304FF4403292FAA2F200
:10205800B2FA82F2D040D3F8841001F070614FF0E8
:10206800706292FAA2F2B2FA82F2D1406268000477
:1020780040EA821242EA0161A26841EA0272C3F8A8
:102088008420236813F4002F03D0E26BB2F5801F7D
:1020980006D013F4801F2ED0236CB3F5800F2AD1FD
:1020A800A04BD3F8840000F440304FF4403292FA49
:1020B800A2F2B2FA82F2D040D3F8841001F0E041E3
:1020C8004FF0E04292FAA2F2B2FA82F2D14062688C
:1020D800000440EA8210E26840EA026242EA0172C1
:1020E800C3F88420D3F88C1021F01F01626A013AEA
:1020F8000A43C3F88C20236813F0807F21D0894BD2
:10210800D3F8846006F070664FF0706292FAA2F21B
:10211800B2FA82F2D640D3F8840000F0E0404FF0E3
:10212800E04292FAA2F2B2FA82F2D04062682169E1
:10213800090441EA821242EA066242EA0072C3F8DE
:102148008420236813F0007F0DD06368226912048D
:1021580042EA8312E36842EA0362A36842EA03732D
:10216800704AC2F884306F4B1A6842F080621A6075
:10217800FEF76EF9064605E0FEF76AF9801B64284B
:1021880000F2C680674B1B6813F0006FF4D0002D77
:1021980000F0C080634B1A6822F080521A60FEF784
:1021A80057F9054605E0FEF753F9401B642800F28D
:1021B800B3805C4B1B6813F0005FF4D1236813F401
:1021C800002F01D0E26B22B113F4801F2DD0236CB5
:1021D8005BBB544BD3F8880000F440304FF44032D6
:1021E80092FAA2F2B2FA82F2D040D3F8881001F043
:1021F800E0414FF0E04292FAA2F2B2FA82F2D14004
:102208006269000440EA8210A26940EA026242EA76
:102218000172C3F88820D3F88C1021F4F851A26A0F
:10222800013A41EA0222C3F88C20236813F4001F04
:1022380025D0E36FB3F1006F21D13A4BD3F8885022
:1022480005F070654FF0706292FAA2F2B2FA82F26B
:10225800D540D3F8880000F0E0404FF0E04292FA11
:10226800A2F2B2FA82F2D0406269216A090441EA14
:10227800821242EA056242EA0072C3F888202368A3
:1022880013F0080F29D0274BD3F8881001F070619C
:102298004FF0706292FAA2F2B2FA82F2D140D3F809
:1022A800880000F440304FF4403292FAA2F2B2FAB9
:1022B80082F2D0406269000440EA821242EA016177
:1022C800E26941EA0272C3F88820D3F88C1021F43D
:1022D8004031E26A0A43C3F88C20124B1A6842F074
:1022E80080521A60FEF7B4F8044604E0FEF7B0F82E
:1022F800001B642812D80B4B1B6813F0005FF5D045
:1023080000200CE003200AE0032008E0032006E098
:10231800032004E0002002E0032000E0032003B0D3
:10232800F0BD00BF0038024001684A6BC2F3C0121A
:102338004FF4803303E04A6BC2F3C012013B0BB188
:10234800002AF8D023B140F2FF538B630020704776
:102358000320704701684B6B13F0450F0CBF002238
:1023680001224FF4803306E04A6B12F0450F0CBF90
:1023780000220122013B0AB9002BF5D14A6B02F079
:10238800040203B11AB104238B63032070474B6B1B
:1023980013F0400F03D040238B630020704729209F
:1023A800704700BF03685A6B12F0450FFAD05A6B9A
:1023B80012F0040F03D004229A630320704740F2FE
:1023C800FF529A630020704703685A6B12F0450F5A
:1023D800FAD05A6B12F0040F03D004229A63032038
:1023E80070475A6B12F0010F02D0012098637047B2
:1023F80040F2FF529A630020704700BF38B5044688
:102408000D4623685A6B12F0450FFAD05A6B12F03A
:10241800040F03D004229A63032038BD5A6B12F0CC
:10242800010F02D00120986338BD184601F056F913
:10243800A84244D1236840F2FF529A6320680021E1
:1024480001F050F9334B0340DBB300283BDB10F0BD
:10245800804F3AD110F0005F39D110F0805F38D149
:1024680010F0006F37D110F0806F36D110F0807FF8
:1024780035D110F4000F34D110F4800F33D110F49B
:10248800001F32D110F4801F31D110F4002F30D149
:1024980010F4802F2FD110F4003F2ED110F4803F7C
:1024A8002DD110F4004F2CD110F4804F2BD110F403
:1024B800005F2AD110F0080F29D01A2038BD10204B
:1024C80038BD002038BD1C2038BD092038BD0A2081
:1024D80038BD0B2038BD0C2038BD0D2038BD0E206E
:1024E80038BD0F2038BD102038BD112038BD12204E
:1024F80038BD132038BD142038BD152038BD16202E
:1025080038BD172038BD182038BD192038BD002027
:1025180038BD00BF08E0FFFDF0B587B004460025D0
:102528008DF8035003685A6822F480725A60006874
:1025380001F0B8F80120FDF791FF23685A6842F4CA
:1025480080725A6001950295039504954FF4806353
:102558000593206801A901F0ADF82046FFF7E4FED5
:102568008DF803009DF8033013F0FF0F03D09DF89A
:102578000300C0B28EE04FF4D57301930823029391
:1025880040230393206801A901F094F82046FFF73F
:10259800E1FE8DF803009DF8033013F0FF0F04D11E
:1025A800012323624FF0804700E0002700230193B6
:1025B80037250295206801A901F07CF820462946B4
:1025C800FFF71CFF8DF803009DF8033013F0FF0F91
:1025D80045D05CE0002301933726029640220392FF
:1025E80004934FF480630593206801A901F062F811
:1025F80020463146FFF702FF8DF803009DF80330AF
:1026080013F0FF0F03D09DF80300C0B242E047F07B
:10261800004343F480130193292302934023039337
:10262800002304934FF480630593206801A901F007
:1026380041F82046FFF7B6FE8DF803009DF80330F9
:1026480013F0FF0F03D09DF80300C0B222E020680A
:10265800002101F047F80246C00F013502E00020D2
:102668000546024618B94FF6FE739D42B2D94FF699
:10267800FE739D4206D91B238DF803309DF8030095
:10268800C0B207E012F0804F01D0022323629DF808
:102698000300C0B207B0F0BD30B587B0054601925F
:1026A8000724029440230393002304934FF4806388
:1026B8000593006801A900F0FDFF28462146FFF7B1
:1026C8009DFE07B030BD00BF70B586B004460E460B
:1026D800E1B1436A1B0401930D250295402303933E
:1026E800002304934FF480630593006801A900F068
:1026F800E1FF20462946FFF781FE054640B92068DC
:10270800002100F0EFFF3060284601E02620FFE7B7
:1027180006B070BD00B583B002A9002341F8043D9E
:10272800FFF7D2FF18B90198C0F3432000E0FF205B
:1027380003B05DF804FB00BFF8B505460E46174622
:102748002B685C6B14F0450FFAD0586B10F0040F2F
:1027580003D004229A630320F8BD5A6B12F0010FCC
:1027680002D001209863F8BD184600F0B7FFB042C8
:1027780019D12B6840F2FF529A632868002100F0B3
:10278800B1FF10F4604F03D1000C38800020F8BD71
:1027980010F4005F09D110F4804F08D110F4004FF5
:1027A80007D00F20F8BD1020F8BD1320F8BD102069
:1027B800F8BD0020F8BD00BF30B587B004460D460F
:1027C80000230093426A120401920D2202924022D1
:1027D800039204934FF480630593006801A900F005
:1027E80069FF23685A6B12F0450FFAD05A6B12F042
:1027F800040F03D004229A63032093E05A6B12F06B
:10280800010F02D0012098638CE0184600F066FFA3
:102818000D285ED1236840F2FF529A632068002198
:1028280000F060FF0090009BC3F343232B70009AD5
:102838003D4B1340002B4ED0009B002B4DDB009BE3
:1028480013F0804F4BD1009B13F0005F49D1009BE0
:1028580013F0805F47D1009B13F0006F45D1009BB8
:1028680013F0806F43D1009B13F0807F41D1009B10
:1028780013F4000F3FD1009B13F4800F3DD1009B50
:1028880013F4001F3BD1009B13F4801F39D1009B28
:1028980013F4002F37D1009B13F4802F35D1009B00
:1028A80013F4003F33D1009B13F4803F31D1009BD8
:1028B80013F4004F2FD1009B13F4804F2DD1009BB0
:1028C80013F4005F2BD1009B13F0080F29D01A20B6
:1028D80028E0102026E0002024E01C2022E0092027
:1028E80020E00A201EE00B201CE00C201AE00D203E
:1028F80018E00E2016E00F2014E0102012E011203E
:1029080010E012200EE013200CE014200AE015203D
:1029180008E0162006E0172004E0182002E019203D
:1029280000E0002007B030BD08E0FFFD30B587B0FB
:1029380004460123ADF80230006800F0B7FE002815
:102948006ED0236A042B28D000230193022202921E
:10295800C022039204934FF480630593206801A971
:1029680000F0A8FE2046FFF72FFD0546002859D1A4
:102978002068002100F0B6FEA0632068042100F062
:10298800B1FEE0632068082100F0ACFE20642068F6
:102998000C2100F0A7FE606400E00025236A012BEB
:1029A80003D9062B01D0022B0FD103250295402312
:1029B8000393206801A900F07DFE204629460DF109
:1029C8000202FFF7B9FE054668BB236A042B25D02F
:1029D800BDF8023063621B04019309230293C023EC
:1029E8000393206801A900F065FE2046FFF7ECFC80
:1029F8000546C8B92068002100F074FEA06220686E
:102A0800042100F06FFEE0622068082100F06AFEF1
:102A1800206320680C2100F065FE6063284603E00F
:102A2800252001E000E0FFE707B030BD2DE9F041C7
:102A38008EB004460E4600230193029308220992A1
:102A480010250A9540220B920C934FF480630D9346
:102A5800006809A900F02EFE20462946FFF7CEFCA3
:102A6800002876D1636AAB40099337250A95206818
:102A780009A900F01FFE20462946FFF7BFFC0028E1
:102A880068D14FF0FF330393082304933023059351
:102A9800022306930025079501230893206803A9BC
:102AA80000F02AFE099533250A95206809A900F047
:102AB80001FE20462946FFF7A1FC804600284AD19E
:102AC80000270AE05A6B12F4001F06D0184600F0DF
:102AD800DFFD01AB43F82700013723685D6B40F247
:102AE8002A421542EED05A6B12F0080F03D0082282
:102AF8009A6304202FE05A6B12F0020F02D00220D2
:102B0800986328E05A6B12F0200F03D020229A63B2
:102B1800062020E040F2FF529A63019B03F47F42B3
:102B2800120242EA036203F47F0142EA112242EAF6
:102B380013637360029B03F47F42120242EA03624A
:102B480003F47F0142EA112242EA136333604046EC
:102B580001E000E0FFE70EB0BDE8F08130B589B0D4
:102B68000446002101910291006800F0BBFD10F0BD
:102B7800007F2AD1204601A9FFF758FF38BB029BE6
:102B880013F4802F24D0636A1B040393372504951C
:102B980040230593002306934FF48063079320682E
:102BA80003A900F087FD20462946FFF727FC88B9CE
:102BB8000223039306250495206803A900F07AFDF3
:102BC80020462946FFF71AFC04E00E2002E001E047
:102BD8002520FFE709B030BD30B589B00446002193
:102BE80001910291006800F07DFD10F0007F2AD16C
:102BF800204601A9FFF71AFF38BB029B13F4803F58
:102C080024D0636A1B040393372504954023059356
:102C1800002306934FF480630793206803A900F00C
:102C280049FD20462946FFF7E9FB88B900230393AD
:102C380006250495206803A900F03CFD2046294696
:102C4800FFF7DCFB04E00E2002E001E02520FFE7AF
:102C580009B030BD704700BF2DE9F00190F8203071
:102C680081F85630838CA1F8543090F82B309A09AB
:102C78000A70C3F383024A7003F003038B7090F861
:102C88002A30CB7090F829300B7190F828304B71AE
:102C980090F82F301B01CB8090F82E30CA8892B262
:102CA80042EA1312CA8003F00F030B7290F82D60EA
:102CB800F3094B72C6F380138B72C6F34013CB72C1
:102CC800C6F300130B7300234B73036A012B48D818
:102CD80006F00306B6020E6190F82C200B6943EA51
:102CE80082030B6190F833300A6942EA93120A6151
:102CF800C3F3C2020A7503F007034B7590F832302C
:102D08005A098A75C3F38202CA7503F003035B008C
:102D18000B7690F83130DEB20A7E42EAD3130B7696
:102D28000B6903F1010C62460023C1E912230A7EF4
:102D380002324FF0010808FA02F2D517ACFB022361
:102D48000CFB0533C1E912230F7AFFB208FA07F723
:102D58000F65A2FB074507FB0355C1E9124500248F
:102D68001FE0022B1CD1C36A03F03F031B040B6155
:102D780090F833200B6943EA02230B6190F8323054
:102D88000A6913430B6190F831600A690132D20471
:102D98000023C1E912234FF400730B65002400E0FF
:102DA8002924C6F380134B7606F03F0676008E760C
:102DB800036B8D7EC3F3C0122A438A7603F07F0328
:102DC800CB7690F83730DA090A77C3F341124A779D
:102DD800C3F382028A7703F003039B00CB7790F852
:102DE8003630CA7F42EA9312CA77C3F3401281F899
:102DF8002020002281F8212003F0010381F82230ED
:102E080090F83530DA0981F82320C3F3801281F86D
:102E18002420C3F3401281F82520C3F3001281F85F
:102E28002620C3F3810281F8272003F0030381F8E9
:102E38002830436BC3F3460381F82930012381F816
:102E48002A3090F83B2081F82C2090F83A20120282
:102E5800CA8590F83950CA8D92B22A43CA8590F82B
:102E6800382012060A6390F83F500A6B42EA05427E
:102E78000A6390F83E500A6B42EA05220A6390F80A
:102E88003D200D6B2A430A6390F83C2081F83420DA
:102E980090F8432081F8352090F8422012068A6382
:102EA80090F841508A6B42EA05428A6390F8405094
:102EB8008A6B42EA05228A6390F847508A6B2A4354
:102EC8008A6390F8462091F83C5045EA121581F83B
:102ED8003C5002F00F021202CA8790F84550CA8F80
:102EE80092B22A43CA87426CC2F3460281F8402054
:102EF80081F841302046BDE8F001704770B58CB0CC
:102F080005460E4600248DF82F400477FFF7A2FEF1
:102F18000594069407940894099476230A932C68D8
:102F280008AB93E807008DE8070005AB0ECB2046F9
:102F380000F092FB2846FFF7EFFA8DF82F009DF876
:102F48002F3013F0FF0F03D09DF82F00C0B231E0EF
:102F58002846FFF7EBFC8DF82F009DF82F3013F073
:102F6800FF0F03D09DF82F00C0B223E0284631465A
:102F7800FFF772FE8DF82F009DF82F3013F0FF0F2A
:102F880008D1B6F85420120428460023FFF784FB22
:102F98008DF82F002B4653F8104B93E807008DE867
:102FA8000700043595E80E00204600F055FB9DF813
:102FB8002F00C0B20CB070BD70B58AB004460D4683
:102FC800036A032B2ED0022B29D8B1F5805F0BD0D2
:102FD800B1F5006F03D1FFF7C1FD064607E029B937
:102FE800FFF7FAFD064602E0272600E02626BEB9CE
:102FF80063680493A3680593E36806930795636978
:103008000893A369099324680AAB13E907008DE8BC
:10301800070004AB0ECB204600F01EFB00E00026A4
:10302800304600E027200AB070BD00BF30B587B039
:103038000546002301930C24029440220392049332
:103048004FF480630593006801A900F033FB28461C
:103058002146FFF7D3F907B030BD00BF2DE9F0478F
:103068008CB006460F4614461D46DDF850A0DDF824
:10307800548003680022DA62036A022B05D1620ACF
:1030880042EAC55214464FF4007ACDF81CA04FF01E
:103098001009CDF820904023099300230A934FF498
:1030A80080630B93306807A900F004FB304649465B
:1030B800FFF7A4F9002840F098804FF0FF33019300
:1030C8000AFB08F30293902303930223049300233B
:1030D800059301230693306801A900F00DFBB8F1B0
:1030E800010F02D91223089301E0112308930CA9B8
:1030F80041F8144D306800F0DDFAB8F1010F1CD921
:1031080030461221FFF77AF9054680B16EE05B6B15
:1031180013F4004F0BD006E0306800F0B9FA47F816
:103128002400013400E00024072CF5D92037336847
:103138005A6B12F4957FEAD01CE030461121FFF754
:103148005DF9054680B152E05B6B13F4004F0BD07C
:1031580006E0306800F09CFA47F82400013400E0EB
:103168000024072CF5D920373368596B40F22A42DE
:103178001142E9D033685B6B13F4807F09D0B8F152
:10318800010F06D9336A022B03D83046FFF74EFFEA
:10319800054633685A6B12F0080F03D008229A6369
:1031A800042024E05A6B12F0020F02D00220986328
:1031B8001DE05A6B12F0200F09D020229A630620D6
:1031C80015E000F065FA47F8040B013C01E04FF008
:1031D800FF343068436B13F4001F01D0002CF0D18A
:1031E80040F2FF538363284601E000E0FFE70CB09C
:1031F800BDE8F0872DE9F0478CB006460F46144627
:103208001D46DDF850A0DDF8548000238DF803300A
:103218000268D362036A022B05D1620A42EAC552E8
:1032280014464FF4007ACDF81CA04FF01009CDF8E1
:1032380020904023099300230A934FF480630B9353
:10324800306807A900F036FA30464946FFF7D6F845
:10325800002840F0DD80B8F1010F02D91923089346
:1032680001E0182308930CA941F8144D306800F0C8
:1032780021FAB8F1010F04D930461921FFF7BEF839
:1032880003E030461821FFF7B9F8002840F0C08065
:103298000AFB08F44FF0FF33019302949023039341
:1032A80000230493059301230693306801A900F0D5
:1032B80023FAB8F1010F32D8002567E05B6B13F4ED
:1032C800804F2DD0C5EB040ABAF11F0F1FD81AF092
:1032D800030F02D14FEA9A0A03E04FEA9A0A0AF169
:1032E800010A4FF0000907E03068394600F0D4F9C8
:1032F8000437043509F10109D145F5D310E03068E8
:1033080007EB890100F0C8F909F1010901E04FF064
:103318000009B9F1070FF2D92037203500E0002560
:1033280033685A6B12F48D7FC8D035E05B6B13F4A9
:10333800804F2BD0C5EB040ABAF11F0F1FD81AF023
:10334800030F02D14FEA9A0A03E04FEA9A0A0AF1F8
:10335800010A4FF0000907E03068394600F09CF98F
:103368000437043509F10109D145F5D30EE0306879
:1033780007EB890100F090F909F1010901E04FF02C
:103388000009B9F1070FF2D9203720353368596B96
:1033980040F21A421142C9D033685B6B13F4807F44
:1033A80008D0B8F1010F05D9336A022B02D830468C
:1033B800FFF73CFE33685A6B12F0080F03D008225F
:1033C8009A63042024E05A6B12F0020F02D0022004
:1033D80098631DE05A6B12F0100F03D010229A6305
:1033E800052015E040F2FF529A6330460DF10301C3
:1033F800FFF7E2F904E030460DF10301FFF7DCF9CD
:1034080030B99DF80330063BDBB2012BF3D9FFE757
:103418000CB0BDE8F08700BF08B5FFF77BF90428BA
:1034280003D0FF2803D1022008BD002008BD0120D9
:1034380008BD00BF704700BF38B50D460446D8B177
:1034480090F82C3013F0FF0F04D1002380F82D30B2
:10345800FFF7F0FF022384F82C30214651F8040BC3
:1034680000F03EF820682946626800F079F80123E8
:1034780084F82C30002038BD012038BD38B504460A
:103488000D4690F82C30DBB2022B12D0022380F8C4
:103498002C30006800F0AEF82B68022B04D105230D
:1034A80084F82C30002038BD012384F82C3000200B
:1034B80038BD022038BD00BF10B5044690F82C3046
:1034C800DBB2022B0AD0022380F82C30006800F00F
:1034D800BDF8012384F82C30002010BD022010BD57
:1034E80030B40B68012B18D0036823F4FF4323F092
:1034F8007F034C688A681443CA6814430A691443F2
:103508004A6914438A691443CA6914430A6A2243FC
:10351800496A0A43134303601EE0036823F4FF4328
:1035280023F07F03CC690A6A14434A6A224342EAB9
:103538000305436823F4FF4323F07F034C688A683C
:103548001443CA6814430A6914434A6922438969BF
:103558000A43134305604360002030BC704700BF36
:1035680030B4012A1FD0846804F070440B685A1ED6
:103578004B68013B42EA03138A68013A43EA022294
:10358800CB68013B42EA03330A69013A43EA024243
:103598004B69013B42EA03528B69013B42EA0363F0
:1035A8002343836022E0C56805F070450A68531E0E
:1035B8004A68013A43EA02128C68013C42EA042450
:1035C8000A69013A44EA02428B69013B42EA036212
:1035D8002A43846804F07044CB68013B4969013987
:1035E800090541EA03332343C2608360002030BCED
:1035F800704700BF70B582B004461546002301939A
:103608000A684B681A438B68013B42EA4313CA684D
:1036180043EA42230193019B0361FCF719FF064625
:1036280008E0B5F1FF3F05D055B1FCF711FF801B4D
:10363800A84207D8A36913F0200FF2D1002002E0B6
:10364800032000E0032002B070BD00BF436943EAD5
:10365800410141610020704784B010B402AC84E895
:103668000E00039B41EA0302049B1A43059B1A437D
:10367800069B1A43079B1A43436823F4FD4323F030
:103688007F031343436000205DF8044B04B0704788
:10369800D0F88000704700BF0B68C0F88030002069
:1036A800704700BF0323036000207047006800F0E4
:1036B800030070470B6883604A688B681A43CB68BD
:1036C8001343096943EA0102C36823F47F6323F0C3
:1036D8000F031343C3600020704700BF0069C0B2E6
:1036E800704700BF82B00023019314300144019158
:1036F800019B186802B070470B6843624B6883628D
:103708008A68CB681A430B69134349690B43C16A3A
:1037180021F0F7010B43C36200207047FEE700BFAA
:1037280008B50D4B1B6813B90C4A0B4B1A600A4BB2
:103738001B68033020F003001844094A904206D958
:1037480004F036FC0C2303604FF0FF3008BD024A3A
:103758001060184608BD00BFB8040020B4930020CC
:1037680000EC042001230360014B0B60704700BF8D
:10377800040000200FB400B583B004AB53F8042B49
:1037880001930848802105F031FA011E03DD054840
:1037980000F02EF80146084603B05DF804EB04B0CB
:1037A800704700BFC004002010B400221AE04FF098
:1037B8006043D3F8803E13F0010F06D04FF060430A
:1037C800D3F8003E13F0010F01D110460DE04FF081
:1037D80060431B68002BFAD004784FF060431C70DC
:1037E800013201308A42E2D308465DF8044B704743
:1037F80008B5FFF7D9FF08BD08B500F087F8024BF8
:10380800024A9A6008BD00BF00ED00E00000000811
:1038180008B500F09BF808BDF8B504460D461746F4
:103828001E462648FFF7A6FF25482168FFF7A2FF96
:1038380024486168FFF79EFF2348A168FFF79AFFB5
:103848002248E168FFF796FF21482169FFF792FFB8
:1038580020486169FFF78EFF1F48A169FFF78AFFBB
:103868001E48E169FFF786FF1D48FFF783FF1D48E3
:103878002946FFF77FFF1C4CE16A1C48FFF77AFFD7
:10388800216B1B48FFF776FFE16B1A48FFF772FFC1
:1038980015F0800F03D018483946FFF76BFF15F471
:1038A800004F03D015483146FFF764FF1448FFF76F
:1038B80061FF14480699FFF75DFFF8BDCC91000839
:1038C800DC910008EC910008FC9100080C920008BB
:1038D8001C9200082C9200083C9200084C920008A8
:1038E8005C9200086892000800ED00E078920008F9
:1038F8008892000898920008A8920008B8920008D8
:10390800C8920008D0920008FFF7FEBF0C4B1A6857
:1039180042F001021A60002199601A6822F084724C
:1039280022F480321A60074A5A601A6822F4802208
:103938001A60D9604FF00062034B9A60704700BF6D
:10394800003802401030002400ED00E0224B9B6854
:1039580003F00C03042B07D0082B09D0002B2DD122
:103968001E4A1F4B1A602CE01E4A1D4B1A6028E0A5
:10397800194B59685B6803F03F0311F4800F09D0B5
:10398800184AB2FBF3F3144A5268C2F3881202FBD6
:1039980003F208E0114AB2FBF3F30F4A5268C2F38C
:1039A800881202FB03F20C4B5B68C3F3014301333B
:1039B8005B00B2FBF3F20A4B1A6002E0074A084BBD
:1039C8001A60054B9B68C3F30313074AD15C044B89
:1039D8001A68CA401A607047003802400024F40090
:1039E8000C00002040787D011493000830B587B0A2
:1039F800D0B90E4B1A6B42F480721A631B6B03F436
:103A080080730093009B0224019401230293039383
:103A180003230493064D284601A9FCF7A5FF284671
:103A280021460022FDF7A0F807B030BD003802405B
:103A38000020024008B520B9024802210122FDF702
:103A480093F808BD002002402DE9F04182B00546F8
:103A58000F46164698464FF44032174B5A60174B9C
:103A68001B683421164A01FB03239C6C022C03D1EA
:103A78000222114B9A6002E000220F4B9A600E4816
:103A8800089CC4600F4C0460FCF736FE88B90A48ED
:103A98002946FCF7F3FE60B9CDF80080064809997D
:103AA8003A463346FCF758FE18B903480A21FCF792
:103AB80075FE02B0BDE8F0818806002040050020B0
:103AC8004405002000B00240034B1B683421034A20
:103AD80001FB0323186E70474005002044050020B1
:103AE800034B1B683421034A01FB0323586E7047BC
:103AF800400500204405002070B58EB005460E46EE
:103B080000240194FFF7E0FF02900394FFF7E8FF19
:103B1800049005940A96FF23069307948DF8344081
:103B28008DF835408DF836404FF4C063089307236D
:103B38000993FFF7C9FF0B90FFF7D2FF0C900B48D2
:103B480001A92A46FDF760FC094A69004B199B0048
:103B580013444FF0FF305860064898600D44AD009C
:103B68004FF07F4353510EB070BD00BF4405002095
:103B7800EC05002018000020014B1860704700BFBA
:103B88004005002008B502460148FDF76DFC08BD58
:103B980044050020034B1B6803EB43039B00024AC8
:103BA800D050704740050020EC050020044B1B68EE
:103BB80003EB43039B00034A13445860704700BF5C
:103BC80040050020EC050020044B1B6803EB430371
:103BD8009B00034A13449860704700BF40050020CB
:103BE800EC050020F0B583B007460B4B1C68342267
:103BF8000A4B02FB0433DE6DFFF766FF0546FFF74D
:103C08006FFF0346002200920197204631462A465C
:103C1800FFF71AFF03B0F0BD40050020440500205F
:103C28002DE9F041074688461646114B1B68342596
:103C3800104C05FB0344A46C022C0CD10D4A05FB67
:103C48000323DC6DFFF740FF00FB0870B6B224F8D1
:103C58001060BDE8F0813421064A01FB0323DC6DC6
:103C6800FFF732FF00FB087044F82060BDE8F081E0
:103C780040050020440500202DE9F04F83B081461F
:103C88000E460092324B1B6803EB43039B00314AFC
:103C980013449B68D98801919D8805F1070B4FEA69
:103CA800EB0BC5EBCB085FFA88F84FF0000A48E049
:103CB8000AFB0BF3009A1A44BBF1010F03D0BBF1C6
:103CC800020F03D008E0009AD75C0DE00099CF5CA2
:103CD800537843EA072707E00099CF5C53781B0223
:103CE80043EA074793781F43002424E02B1B4344EF
:103CF800013B012202FA03F33B420DD009EB040019
:103D0800134B1B6803EB43039B0080B23146114AF7
:103D1800D258FFF785FF0DE009EB04000C4B1B6838
:103D280003EB43039B000B4A134480B231465A68A5
:103D3800FFF776FF0134A542D8D80136B6B20AF1AA
:103D4800010A019A5245B3D803B0BDE8F08F00BF0D
:103D580040050020EC05002038B50A4B1B6803EB32
:103D680043039B00084C23449B681C68203ADD8869
:103D780005FB02F29B880733DB1003FB0242FFF7C7
:103D88007BFF38BD40050020EC0500202DE9F041FF
:103D980004460E46154698461046002701E00137AE
:103DA8000846411C0278002AF9D1FFF78DFE294BFD
:103DB8001B6803EB43039B00274A13449B689B88BB
:103DC800B0FBF3F0B8F1010F03D0B8F1020F07D040
:103DD8000BE0C01B00FB03F304EB5304A4B204E0A4
:103DE800C01B00FB03F31C1BA4B223B2002B00DC96
:103DF8000124002712E0204631464246FFF7ACFF77
:103E0800144B1B6803EB43039B00134A13449B6842
:103E18009B881C44A4B201350137BFB295F80080D5
:103E2800FFF752FE0B4B1B6803EB43039B000A4A48
:103E380013449B689B8803FB170080B218F10002AB
:103E480018BF0122984238BF0022002AD3D1BDE80A
:103E5800F08100BF40050020EC05002008B5094BA3
:103E68001B689A6942F001029A6107484FF4805131
:103E78000122FCF779FE054808210122FCF774FEAF
:103E880008BD00BF44050020002002400028024071
:103E9800F0B58FB04A4B5A6C42F080625A645A6C43
:103EA80002F080620092009A1A6B42F400021A63D0
:103EB8001A6B02F400020192019A1A6B42F0100286
:103EC8001A631A6B02F010020292029A1A6B42F0FD
:103ED80040021A631A6B02F040020392039A1A6BAB
:103EE80042F480721A631A6B02F480720492049A84
:103EF8001A6B42F400721A631A6B02F4007205928C
:103F0800059A1A6B42F480621A631A6B02F4806293
:103F18000692069A1A6B42F480721A631A6B02F4BC
:103F280080720792079A1A6B42F480621A631B6BBD
:103F380003F480630893089B1023099302240A94CE
:103F480000230B930C940E250D951E4809A9FCF728
:103F58000BFD4FF4805709970A9409230D931A48CB
:103F680009A9FCF701FD4FF4674309930A940D95DD
:103F7800164E304609A9FCF7F7FC4EF6FF73099375
:103F88000A940D95124809A9FCF7EEFCF72309934A
:103F98000A940D950F4C204609A9FCF7E5FC0997F2
:103FA80001250A95304609A9FCF7DEFC0823099388
:103FB8000A95204609A9FCF7D7FC0FB0F0BD00BF51
:103FC8000038024000100240001802400020024061
:103FD800002402400028024008B506480823036070
:103FE800C02343610523C3614FF48033C362FDF7E7
:103FF80067FE08BD0406002010B5244C2823636121
:104008000923A3613523E3610B23236240F21B13C9
:10401800A36240F21523636240F21D13236340F24A
:104028003523E36220460021FFF7D6FF4FF4F073F3
:1040380023664FF488736366002384F8343084F869
:10404800353084F836306360A360E3602361104B39
:1040580023602046FDF726FA18B920460021FFF70D
:1040680017FF0A48FDF750F90A484FF4805101221A
:10407800FCF77AFD084808210122FCF775FD00F0DD
:1040880071FA0648FFF7A0FD002010BD4405002086
:10409800006801400020024000280240180000206B
:1040A80000B583B001238DF8073007484FF400515D
:1040B800FCF752FD012802D100238DF807309DF846
:1040C800070003B05DF804FB0008024010B582B099
:1040D8000146049C0094059C01940448FEF7BEFF29
:1040E80008B1012000E0002002B010BD78070020D0
:1040F80010B582B00146049C0094059C01940448C4
:10410800FFF778F808B1012000E0002002B010BDE8
:10411800780700202DE9F04F8BB00646544B5A6CB7
:1041280042F400625A645A6C02F400620192019AE5
:104138001A6B42F480021A631A6B02F4800202922C
:10414800029A1A6B42F004021A631A6B02F0040214
:104158000392039A1A6B42F008021A631B6B03F06E
:1041680008030493049B0223069301230793032760
:1041780008970C2309930AAC4FF4F85344F8143DFC
:104188003C482146FCF7F0FB4FF00408CDF81480BA
:1041980039482146FCF7E8FB312005210022FCF7CD
:1041A8007DF93120FCF7ACF9344C4FF0006BC4F8C2
:1041B80004B00025A560E5604FF4806AC4F810A03B
:1041C8004FF48059C4F814904FF48043A36120231E
:1041D800E3614FF440332362C4F82480A7624FF4AC
:1041E8000003E3624FF400132363254B2360B46597
:1041F800A6632046FCF70AFA2046FCF7CBF9214CC7
:10420800C4F804B04023A360E560C4F810A0C4F863
:1042180014904FF48043A3612023E3614FF44033AB
:104228002362C4F82480A7624FF40003E3624FF4CA
:1042380000132363144B2360F465A6632046FCF740
:10424800E5F92046FCF7A6F93B2006212A46FCF7AB
:1042580025F93B20FCF754F9452006212A46FCF7AE
:104268001DF94520FCF74CF90BB0BDE8F08F00BFF5
:104278000038024000080240000C024020070020DD
:1042880058640240D8070020A064024000B587B0F7
:104298000C4B1A6B42F004021A631B6B03F0040305
:1042A8000093009B4FF400530193002302930123D2
:1042B800039303230493044801A9FCF755FB07B0B3
:1042C8005DF804FB003802400008024010B51448AD
:1042D800144B0360002141608160C160016141614C
:1042E8008161FFF7D3FFFFF7DBFE012816D10C4CE5
:1042F80020460021FFF70EFF20460B49FEF7FEFD82
:1043080008B9002400E0012434B905484FF40061DD
:10431800FEF752FE00B10124204610BD022010BD58
:1043280078070020002C0140C806002008B5024884
:10433800FFF772F808BD00BF7807002008B50146EE
:104348000148FEF789FC08BD780700202DE9F043F5
:1043580083B081464FF00008CDF80480204C012638
:10436800266010276760A660C4F80C801D4D28469B
:1043780021464FF6FF72FFF781F8642002F07EFFB6
:10438800022323606760A660C4F80C802846214693
:104398004FF6FF72FFF772F8032323606760082364
:1043A800A360C4F80C80284621464FF6FF72FFF739
:1043B80065F84FF408730193042323606760A660CF
:1043C800019BE360284621464FF6FF72FFF756F837
:1043D80028464946FFF770F803B0BDE8F08300BFF0
:1043E800300800209808002070B58EB00646544B5F
:1043F8009A6B42F001029A639A6B02F001020192F1
:10440800019A1A6B42F480021A631A6B02F4800252
:104418000292029A1A6B42F004021A631A6B02F0B3
:1044280004020392039A1A6B42F008021A631A6B89
:1044380002F008020492049A1A6B42F010021A63FE
:104448001A6B02F010020592059A1A6B42F02002CC
:104458001A631A6B02F020020692069A1A6B42F04F
:1044680040021A631A6B02F040020792079A1A6B0D
:1044780042F080021A631B6B03F080030893089BC9
:1044880002230A9301220B920C930C230D930EAC7A
:10449800082344F8143D2B482146FCF765FA4CF2F2
:1044A8000B73099328482146FCF75EFA4FF683738D
:1044B800099326482146FCF757FA4FF63F0309931C
:1044C80023482146FCF750FA48F233130993214850
:1044D8002146FCF749FA282309931F482146FCF78F
:1044E80043FA1E4C002565608023A3604FF40073D7
:1044F800E3604FF4806323614FF4805363614FF4AA
:104508008043A361E5614FF40033236265620323AE
:10451800A362E5622563124B23603463A6632046D9
:10452800FCF774F82046FCF735F8382005212A46B0
:10453800FBF7B4FF3820FBF7E3FF0EB070BD00BFF8
:104548000038024000080240000C024000100240FF
:104558000014024000180240001C024040080020DD
:104568001064024038B51B4C1B4B23601B4D0223C3
:104578002B60072169600422AA60E9602B616B61E6
:10458800AB6100216160A160E260102323614023D8
:1045980063614FF48073A361E1614FF400632362A8
:1045A8004FF480536362A1622046FFF71DFF204647
:1045B8002946FEF741FF18B10122094B1A7002E0A3
:1045C8000022074B1A7040F20360FFF7BFFE044B4E
:1045D800187838BD98080020400100A0CC080020B9
:1045E8002800002010B504460C2003F0FBFC10B98D
:1045F800012003F0E3FC046000224260826010BDE9
:1046080008B5002242608260026003F0F3FC08BD36
:104618000068704708B50C2003F0E4FC0022026033
:104628004260826008BD00BF03682BB943682BB99C
:1046380083682BB100207047002070470020704726
:104648000120704738B504460846FFF7CBFF0546FA
:104658002046FFF7E9FF10B16560256006E0636852
:104668009D6063686B6063689B686360A3680133DF
:10467800A36038BD38B50446FFF7D6FF10B1012056
:1046880003F09CFC60684268626012B1002191608E
:1046980001E0002222600568FFF7B2FFA368013B32
:1046A800A360284638BD00BF38B50446FFF7BCFFF5
:1046B80010B1012003F082FC20688268226012B1E8
:1046C8000021516001E0002262600568FFF798FF51
:1046D800A368013BA360284638BD00BF38B504462F
:1046E800006806E08568FFF78BFFA368013BA360BD
:1046F80028460028F6D1204603F07CFC38BD00BFD0
:1047080038B505460C46FFF78FFF30B123682B609C
:1047180063686B60A368AB600FE02046FFF784FF17
:1047280058B96B6822689A6023686A685A60636837
:104738006B60AA68A3681344AB60002323606360BE
:10474800A3602046FFF7CAFF38BD00BF2DE9F84334
:1047580080460C460C2003F045FC0546C0F8008056
:1047680044604046042103F019FCA860002713E0C8
:10477800D5F80890BE002046042103F00FFC49F844
:104788002700002305E0AA689259002142F8231067
:104798000133A342F7DB01374745E9DB2846BDE88B
:1047A800F88300BF38B50546E0B183685BB913E00C
:1047B800AB6853F8240003F01DFCAB68002243F8F3
:1047C8002420013400E000242B68A342F0DCA86810
:1047D80003F010FC0023AB6000232B606B602846BD
:1047E80003F008FC38BD00BF10B4002A13DB0468CE
:1047F800944210DD002B0EDB44689C420BDD806880
:1048080050F82200054A114003D5013961F0010131
:10481800013140F823105DF8044B70470100008017
:10482800F8B506460C4642680B689A4224D1486897
:1048380000F058FC00271BE0316851F82350A168AC
:1048480051F8231051F8271001FB0522013301E02C
:104858000022134621689942EEDC0568B900074B2F
:104868001A4003D5013A62F0010201326A50013759
:104878006368BB42ECDCF8BD0020F8BD0100008095
:1048880043688B4214DB02680B46002900DACB1D13
:10489800DB10D05C084B194003D5013961F00701E2
:1048A8000131802343FA01F1084003D00120704709
:1048B8004FF0FF30704700BF070000804368934205
:1048C80013DD91B11346002A00DAD31DDB1001680D
:1048D8000648024003D5013A62F0070201328020FF
:1048E80040FA02F2C85C0243CA54704707000080CD
:1048F80070B506460C2003F075FB04463546002EBD
:1049080000DAF51D16F0070318BF012303EBE505D0
:10491800284603F067FB20606660A560002303E07B
:1049280022680021D1540133AB42F9DB204670BD27
:1049380038B505460C2003F055FB044605600123F5
:104948008360002D0FDD2846042103F027FB6060FB
:10495800002304E06268002142F823100133226832
:104968009A42F7DC01E000234360204638BD00BFCF
:1049780010B50446406803F03DFB00236360204601
:1049880003F038FB10BD00BF70B5411A4E1E01235D
:1049980003FA06F603FA00F000F0A4FB00250CE089
:1049A8000168012441F8224003EB460300E000239C
:1049B800EA1841688A42F3DB0135B542F7DB70BD7E
:1049C8002DE9F84306460D460120B04000F08AFB69
:1049D8000446002304E02268012142F823100B4416
:1049E80062689A42F7DC002305E06A6852F82320DF
:1049F800002A05DC01332A689A42F6DC012200E02D
:104A080000226B683BB142B90CE02268A96842F801
:104A18002310013302E0002300E0002362689A4279
:104A2800F3DC1FE0AB68002B18DC1BE06B6853F865
:104A38002730002B10DD30463946FFF7A5FF8046AA
:104A48002046414600F08AFB8146204600F000FCE3
:104A5800404600F0FDFB4C46013700E000272B687C
:104A6800BB42E3DC2046BDE8F88300BF2DE9F84FE0
:104A780007468A469346FFF7CDFD814601254FF04C
:104A880000081AE0FFF7C6FD0646002407E038468E
:104A9800FFF70AFE01463046FFF7D4FD0134AC4269
:104AA800F5DB48463146FFF7CDFDC8EB0B0305FBA8
:104AB80003F508F1010895FBF8F5D045E2DD484615
:104AC800BDE8F88F2DE9F84304460D469146FFF7F7
:104AD800A1FD80466368AB422CDA2768013725E0E0
:104AE8000C2003F07FFA06466368013343604846AA
:104AF800FFF71EFFB06001238360002308E0B2685F
:104B08005168A268526852F8235041F82350013383
:104B180025689D42F3DA3760B3685B68012243F881
:104B2800272040463146FFF78DFD0137A3681B68F3
:104B3800BB42D5DC4046BDE8F88300BF2DE9F04113
:104B480080460F46FFF766FD0446FFF763FD0646FD
:104B58000C2003F047FA05464FF0FF3303600023AB
:104B680043603846FFF7E4FEA86020462946FFF771
:104B780069FD12E02046FFF797FD054641463A4693
:104B8800FFF7A0FF01462046FFF7BAFD3046A968A7
:104B9800FFF758FD284603F02DFA2046FFF744FD9D
:104BA8000028E7D03046BDE8F08100BF2DE9F0418C
:104BB80005460C46FFF72EFD804624680BE020468C
:104BC800FFF726FD0146A4682846FFF7F9FE0146CF
:104BD8004046FFF737FD002CF1D1D8F80800012135
:104BE800A940FFF7B3FD0546002615E04046FFF74C
:104BF8005BFD0746002408E03B68284653F824106C
:104C080032462346FFF7F0FD01346B68A342F3DC1C
:104C1800384600F01DFB01364046FFF705FD002829
:104C2800E4D02846BDE8F0812DE9F84F82468B464E
:104C3800FFF7F0FC0446012000FA0BF000F052FAEE
:104C48000146002304E00A68012042F823000344D7
:104C58004A689A42F7DC2046FFF7F4FC002737E061
:104C6800DAF8043053F82730002B30D1584639464B
:104C7800FFF78AFE814600F06BFA8046FFF7CAFC10
:104C8800064615E02046FFF70FFD0546494600F0A9
:104C980065FA01463046FFF7D5FC2846414600F044
:104CA8005DFA01463046FFF7CDFC284600F0D0FA01
:104CB8002046FFF7B9FC0028E4D0484600F0C8FABF
:104CC800404600F0C5FA2046FFF708FD3446013794
:104CD800DAF80030BB42C3DCA068042103F05EF9B7
:104CE8000646002505E02046FFF7DEFC46F82500CD
:104CF80001352046FFF798FC0028F4D02046FFF73E
:104D0800EDFC3046BDE8F88F2DE9F04107460E4628
:104D180015464FF00008444609E0384656F8241076
:104D280000F064FA012801D108F101080134AC420D
:104D3800F3DB4FEA4808A84505D04545CCBF00201D
:104D48000120BDE8F0814FF0FF30BDE8F08100BFE1
:104D58002DE9F04F85B08146144608461146FFF705
:104D6800EDFE039020460399FFF720FF0190D9F844
:104D78000410026891FBF2F302FB1312002AC8BF69
:104D880001330293406803FB00F0FFF7B1FD804652
:104D980000252E46AA4639E0019B186800F0A2F9C2
:104DA80007460024AB4608E03D6848463146FFF711
:104DB80067FD45F82400013401367B68A34203DD12
:104DC800D9F80430B342EFDC5D4638460199FFF765
:104DD80027FD8346002409E0DBF80030404653F8FD
:104DE80024102A46FFF76AFD01340135DBF8043048
:104DF800A34203DDD8F80430AB42EDDC584600F09E
:104E080027FA384600F024FA0AF1010A029B9A456B
:104E1800C2DB039B1C6805E02046FFF7F9FBFFF7A0
:104E2800A7FDA468002CF7D10398FFF757FC019859
:104E3800FFF7B8FC404605B0BDE8F08F2DE9F04F0C
:104E48008DB006460C46059208461146FFF776FED9
:104E58000B9081680A912146059AFFF707FE079093
:104E68004FF0010A059B0AFA03FACDF804A072680C
:104E780092FBFAF30AFB1322002AD4BF994603F1E6
:104E880001094846042103F089F8049048460421A2
:104E980003F084F882464846042103F07FF8002591
:104EA800CDF808A0DDF810A00390AB4621E00AEB8E
:104EB8008B08019800F016F94AF82B000A9800F0C0
:104EC80011F9029941F82B00002408E01F683046C8
:104ED8002946FFF7D5FC47F8240001340135D8F8F6
:104EE80000305A68A24202DD7268AA42EEDC0BF179
:104EF800010BCB45DBDBDDF808A0DDF80CB00A9B25
:104F0800013B0893002101919DE00798FFF7B2FB50
:104F180002900024054605E0A86800F0E3F84BF885
:104F2800240001344C45F7DB05980299FFF73EFE53
:104F380006900027CDF824A041E00298FFF7B4FBC3
:104F480006460125002305E0726852F8232002B9BD
:104F58006D00013332689A42F6DC30460599FFF756
:104F680063FE80460024DDF810A0039614E05BF889
:104F780024301E685AF8240041462A46FFF7C4FE2A
:104F880046F827005BF824301B6853F82730B3F144
:104F9800FF3F00D1019301344C45E8DB039E013704
:104FA800002404E058F8240000F052F90134AC421F
:104FB800F8DB404603F01EF83046FFF7D9FC0298AC
:104FC800FFF732FB0028B8D0DDF824A0013F08988D
:104FD80010E05AF8232011685BF82320126852F871
:104FE800272041F82020013300E000234B45F0DB67
:104FF8000138013F002FF8DA08900024049FDDF8FB
:10500800188018E05BF824004146FFF709FC0646C3
:1050180057F824502846314600F0C2F847F82400D3
:10502800304600F015F9284600F012F95BF8240024
:1050380000F00EF901344C45E4DB0298FFF74EFB13
:105048000698FFF7AFFB0798FFF7EEFA00283FF442
:105058005CAF0A9901FB09F0FFF74AFC07460025F7
:105068002E46CDF808B0DDF810B01CE01B683846B5
:1050780053F824102A46FFF721FC0134013500E0DB
:1050880000244FEA86085AF826305A68A24202DD00
:105098007A68AA42EADC184600F0DAF85BF80800F9
:1050A80000F0D6F801364E45EADBDDF808B0504688
:1050B80002F0A0FF049802F09DFF584602F09AFF04
:1050C8000B98FFF70BFB0798FFF708FB019B23B131
:1050D800384600F0BDF8002000E038460DB0BDE8C5
:1050E800F08F00BF38B50546082002F07BFF044664
:1050F80045602846042102F051FF2060002304E0A7
:105108002268002142F823100133AB42F8DB204625
:1051180038BD00BFF8B505460E464068FFF7E2FF08
:1051280000230EE0076899002A6852F823203244C9
:10513800064C224003D5013A62F0010201327A504E
:1051480001336A689A42EDDCF8BD00BF01000080B7
:1051580008B50121FFF7DEFF08BD00BFF8B5054619
:105168000E464068FFF7BEFF002312E0076899006B
:105178002A6852F82320346854F8234004FB02F2CA
:10518800064C224003D5013A62F0010201327A50FE
:1051980001336A689A42E9DCF8BD00BF010000806B
:1051A800F8B505460E4640684B68984202D0012083
:1051B80002F004FFFFF796FF002311E0076899004B
:1051C8002A6852F82340326852F823202244064CB9
:1051D800224003D5013A62F0010201327A500133CC
:1051E8006A689A42EADCF8BD01000080F0B4002643
:1051F80033461EE002689F0052F82340134A2240BB
:1052080003D5013A62F0010201320D68EC590F4DE5
:105218002C4003D5013C64F00104013404FB02F284
:105228000A4D2A4003D5013A62F0010201321644C0
:10523800013342689A42DDDC0448304003D5013826
:1052480060F001000130F0BC704700BF0100008031
:1052580010B5044628B1006802F0CCFE204602F0E2
:10526800C9FE10BD2DE9F8430446894690461F46FD
:105278001046FFF73DFB05460460002407E02E6852
:1052880019F80420335D534033550134A4B2AB6898
:105298009C42F4DB284601210722FFF7CFFD10B31B
:1052A80001210722FFF754FD002407E0066819F8DA
:1052B8000420335D534033550134A4B2AB689C429B
:1052C800F4DB002404E003681B5D3B550134A4B201
:1052D800AB689C42F7DB006841463A4600F030F97B
:1052E8000020BDE8F8830120BDE8F883C0F3C012B0
:1052F800C0F3C0035340C0F380025340C0F34002E0
:10530800534043EA4000C0B2704700BFF0B44FEAD0
:10531800C01C00F00207BFB200F00406B6B200F0ED
:105328000805ADB200F01004A4B200F0200189B263
:1053380000F0400292B2C0F3C0105FFA8CF343EA67
:10534800471343EAC60343EA450343EA640343EACF
:10535800E10343EA621318430002F0BC704700BF40
:1053680040F27F13984213D000EB4000C00103467F
:10537800002800DAC31C9A10074880FB0210DB17CC
:10538800C3EBA01000EB4003C0EBC310101A70472A
:1053980040F27F10704700BF752FC72AF0B58DB057
:1053A8000646002305E00CAA1A44002102F8301C26
:1053B80001332F2BF7DD00251EE0775D274107F02D
:1053C800010704EBC500FFF7CBFF0246002800DA0F
:1053D800C21DC2F3C7025342DB00184487400CAB1E
:1053E8001A4412F8303C5F4002F8307C013400E087
:1053F8000024072CE1DD01352F2DF9DD3046694603
:10540800302202F00EFE0DB0F0BD00BF70B50446AC
:10541800FB25002628E023786B402370637883EA15
:10542800152363702846FFF771FF94F82F3083EA3D
:10543800102384F82F3094F82E30584084F82E002A
:105448002846FFF753FF0546002306E0E15C084ABB
:1054580052F82120E25401339BB22F2BF6D9204673
:10546800FFF79CFF0136B6B2C22ED4D970BD00BF7B
:105478002C00002070B505460E460021302202F0AF
:10548800D9FD00246C642C6430462146102202F0B9
:10549800D1FD204670BD00BF08B5002306E0C21844
:1054A80092F83010C25C4A40C25401330F2BF6DD2B
:1054B800FFF7ACFF002008BD10B504463030214688
:1054C800102202F0AEFD2046FFF7A0FF002010BD1D
:1054D80030B4026C1346002A00DAD31DDB101749DA
:1054E8000A4003D5013A62F007020132114652B16F
:1054F800C2F10802FF2404FA02F2C41894F83050EA
:105508002A4084F8302049B1802242FA01F1C218B9
:1055180092F83040214382F8301009E0C218802107
:1055280082F8301004E00133C218002182F83010EC
:10553800102BF8D1002030BC704700BF0700008056
:1055480070B592B006460C46154668461146FFF7F8
:1055580091FF58B140E00CA83146102202F061FDDD
:105568006846FFF799FF803CA4B210367F2CF2D82A
:105578005CB114F0070218BF01220CA8314602EBF7
:10558800D40202F04EFD109406E02CB90CA80021BC
:10559800102202F04FFD10946846FFF799FF684605
:1055A800FFF77AFF119B803311930BE06846FFF7F2
:1055B80083FF28460CA9102202F033FD119B80338B
:1055C80011931035119B7F2BF0DD28466946102278
:1055D80002F027FD0020FFE712B070BD08B5044BAC
:1055E80003EB8002526852681844007B904708BD5C
:1055F8000C09002008B5084B1B5C53B9064B012267
:105608001A5403EB8002526812681844007B9047D2
:1056180008BD002008BD00BF0C09002038B5044CA7
:1056280004EB80056D68AD682044007BA84738BD51
:105638000C09002038B5044C04EB80056D68ED6852
:105648002044007BA84738BD0C09002010B5044B46
:1056580003EB8004646824691844007BA04710BDEC
:105668000C0900200020704704E00A7802701A46EE
:1056780001310130531E002AF7D1704702E0017052
:105688001A460130531E002AF9D1704770B40346F8
:10569800002001E029463346541E32B15E1C1878BA
:1056A8004D1C0B782246C01AF4D070BC704700BF5E
:1056B80000E00130037813B15AB28A42F9D158B2E6
:1056C800704700BF30B400252B4620E003EB4302AF
:1056D80092001E4CA258C2B1D0F80042A24215D185
:1056E80003EB43029200194C22445468D0F8082274
:1056F80094420BD103EB43029200144C22441489C8
:10570800B0F80622944201D103E001250133012BB0
:10571800DCD9022B08D11DB9022903D1002012E0DF
:10572800002010E012200EE051B903EB43039B0068
:10573800074A13445B88B3F5807F03D1102002E049
:10574800102000E0002030BC704700BFE8080020AF
:10575800F0080020002000E00130012806D800EB06
:1057680040039B00034AD358002BF5D1023818BFD9
:1057780001207047E808002070B400231DE003EB07
:10578800430292002F4CA458D0F80022944213D11F
:1057980003EB430292002B4C22445468D0F80822B1
:1057A800944209D103EB43029200264C2244148907
:1057B800B0F80622944202D00133012BDFD9022B24
:1057C8001ED101E0013300E00023012B06D803EBD2
:1057D800430292001B4CA258002AF3D1022B2BD073
:1057E800D0F80062174D5A001A449200AC18AE5017
:1057F800D0F808226260B0F806022081002060819B
:1058080031B103EB430292000F4802445288AAB90F
:1058180041B903EB430292000B490A445188013114
:1058280089B201E04FF4807103EB4302920006480D
:1058380002445180581C02E0002000E0002070BCA7
:10584800704700BFE8080020F00800200138012850
:105858001BD800EB40039B000E4A13445B88B3F54A
:10586800807F00D100230BB1013B9BB200EB4002CB
:10587800920008490A4453804BB900EB40039B004F
:105888000020A1F10802D050704702207047002084
:10589800704700BFF008002010B400230CE003EBB1
:1058A8004302920007498A58824204D103EB43021B
:1058B800920000248C500133012BF0D95DF8044B81
:1058C800704700BFE8080020D0F824220432490AB3
:1058D800D0F8003293F80232B1FBF3F113683BB110
:1058E800994202D3C91A0832F8E750680844704749
:1058F80000207047CA7E8B7E43EA022390F800227C
:10590800032A05D1487D0A7D42EA002243EA024380
:10591800184670478176C1F30723C376090C0175D1
:10592800090A4175704700BF2DE9F84F88460C6891
:1059380000E0013423785AB22F2AFAD05C2AF8D032
:10594800D0F81892484620210B22FFF797FE002630
:1059580033460827B34600E0534603F1010AE35CE7
:10596800DDB2202D35D92F2D33D05C2D31D02E2D01
:1059780001D0BE420AD3082F53D12E2D54D14FEA5D
:105988008B0B5FFA8BFB08260B27E5E713F0800FDC
:1059980004D04BF0030B803D284B5D5D2848294619
:1059A800FFF786FE002842D1A5F14103DBB2192B8F
:1059B80002D84BF0020B08E0A5F16103DBB2192B0A
:1059C80003D84BF0010B203DEDB209F80650013623
:1059D800C2E75444C8F80040202D01D8042300E051
:1059E80000233EB399F80020E52A02D1052289F860
:1059F8000020082F03D14FEA8B0B5FFA8BFB0BF0CB
:105A08000302012A01D143F010030BF00C0BBBF188
:105A1800040F01D143F0080389F80B300020BDE8DA
:105A2800F88F0620BDE8F88F0620BDE8F88F06201D
:105A3800BDE8F88F0620BDE8F88F00BF30BE00082B
:105A4800B0BE000810B4046824B94FF0FF3323E057
:105A5800013200E022461378D9B2202902D959B27E
:105A68003A29F5D15BB23A2B15D1611C94F9003073
:105A7800303B092B06D8914207D1012B08D80132B7
:105A8800026009E04FF0FF3306E04FF0FF3303E018
:105A98004FF0FF3300E0002318465DF8044B7047D1
:105AA800F8B5044690F8043233B3D0F82C520746C0
:105AB80090F8010221462A460123FFF7BBFDE8B909
:105AC800002384F80432D4F82032EA1AD4F81832C1
